{
  "_format": "hh-sol-artifact-1",
  "contractName": "Lottery",
  "sourceName": "contracts/Lottery.sol",
  "abi": [
    {
      "inputs": [
        {
          "internalType": "uint64",
          "name": "_subscriptionId",
          "type": "uint64"
        }
      ],
      "stateMutability": "nonpayable",
      "type": "constructor"
    },
    {
      "inputs": [
        {
          "internalType": "address",
          "name": "have",
          "type": "address"
        },
        {
          "internalType": "address",
          "name": "want",
          "type": "address"
        }
      ],
      "name": "OnlyCoordinatorCanFulfill",
      "type": "error"
    },
    {
      "inputs": [
        {
          "internalType": "address",
          "name": "owner",
          "type": "address"
        }
      ],
      "name": "OwnableInvalidOwner",
      "type": "error"
    },
    {
      "inputs": [
        {
          "internalType": "address",
          "name": "account",
          "type": "address"
        }
      ],
      "name": "OwnableUnauthorizedAccount",
      "type": "error"
    },
    {
      "anonymous": false,
      "inputs": [
        {
          "indexed": true,
          "internalType": "address",
          "name": "player",
          "type": "address"
        },
        {
          "indexed": false,
          "internalType": "uint256",
          "name": "amount",
          "type": "uint256"
        }
      ],
      "name": "Entered",
      "type": "event"
    },
    {
      "anonymous": false,
      "inputs": [
        {
          "indexed": false,
          "internalType": "uint256",
          "name": "newFee",
          "type": "uint256"
        }
      ],
      "name": "EntryFeeUpdated",
      "type": "event"
    },
    {
      "anonymous": false,
      "inputs": [
        {
          "indexed": true,
          "internalType": "address",
          "name": "winner",
          "type": "address"
        }
      ],
      "name": "LotteryEnded",
      "type": "event"
    },
    {
      "anonymous": false,
      "inputs": [
        {
          "indexed": false,
          "internalType": "uint256",
          "name": "endTime",
          "type": "uint256"
        }
      ],
      "name": "LotteryStarted",
      "type": "event"
    },
    {
      "anonymous": false,
      "inputs": [
        {
          "indexed": true,
          "internalType": "address",
          "name": "previousOwner",
          "type": "address"
        },
        {
          "indexed": true,
          "internalType": "address",
          "name": "newOwner",
          "type": "address"
        }
      ],
      "name": "OwnershipTransferred",
      "type": "event"
    },
    {
      "anonymous": false,
      "inputs": [
        {
          "indexed": true,
          "internalType": "address",
          "name": "winner",
          "type": "address"
        },
        {
          "indexed": false,
          "internalType": "uint256",
          "name": "amount",
          "type": "uint256"
        }
      ],
      "name": "PrizeWithdrawn",
      "type": "event"
    },
    {
      "inputs": [],
      "name": "LOTTERY_DURATION",
      "outputs": [
        {
          "internalType": "uint256",
          "name": "",
          "type": "uint256"
        }
      ],
      "stateMutability": "view",
      "type": "function"
    },
    {
      "inputs": [],
      "name": "MIN_PLAYERS",
      "outputs": [
        {
          "internalType": "uint256",
          "name": "",
          "type": "uint256"
        }
      ],
      "stateMutability": "view",
      "type": "function"
    },
    {
      "inputs": [
        {
          "internalType": "bytes",
          "name": "",
          "type": "bytes"
        }
      ],
      "name": "checkUpkeep",
      "outputs": [
        {
          "internalType": "bool",
          "name": "upkeepNeeded",
          "type": "bool"
        },
        {
          "internalType": "bytes",
          "name": "performData",
          "type": "bytes"
        }
      ],
      "stateMutability": "view",
      "type": "function"
    },
    {
      "inputs": [],
      "name": "endLottery",
      "outputs": [],
      "stateMutability": "nonpayable",
      "type": "function"
    },
    {
      "inputs": [],
      "name": "endTime",
      "outputs": [
        {
          "internalType": "uint256",
          "name": "",
          "type": "uint256"
        }
      ],
      "stateMutability": "view",
      "type": "function"
    },
    {
      "inputs": [],
      "name": "enter",
      "outputs": [],
      "stateMutability": "payable",
      "type": "function"
    },
    {
      "inputs": [],
      "name": "entryFee",
      "outputs": [
        {
          "internalType": "uint256",
          "name": "",
          "type": "uint256"
        }
      ],
      "stateMutability": "view",
      "type": "function"
    },
    {
      "inputs": [],
      "name": "getBalance",
      "outputs": [
        {
          "internalType": "uint256",
          "name": "",
          "type": "uint256"
        }
      ],
      "stateMutability": "view",
      "type": "function"
    },
    {
      "inputs": [],
      "name": "getPlayers",
      "outputs": [
        {
          "internalType": "address[]",
          "name": "",
          "type": "address[]"
        }
      ],
      "stateMutability": "view",
      "type": "function"
    },
    {
      "inputs": [
        {
          "internalType": "address",
          "name": "",
          "type": "address"
        }
      ],
      "name": "isMember",
      "outputs": [
        {
          "internalType": "bool",
          "name": "",
          "type": "bool"
        }
      ],
      "stateMutability": "view",
      "type": "function"
    },
    {
      "inputs": [],
      "name": "lotteryOpen",
      "outputs": [
        {
          "internalType": "bool",
          "name": "",
          "type": "bool"
        }
      ],
      "stateMutability": "view",
      "type": "function"
    },
    {
      "inputs": [],
      "name": "owner",
      "outputs": [
        {
          "internalType": "address",
          "name": "",
          "type": "address"
        }
      ],
      "stateMutability": "view",
      "type": "function"
    },
    {
      "inputs": [],
      "name": "pendingVRF",
      "outputs": [
        {
          "internalType": "bool",
          "name": "",
          "type": "bool"
        }
      ],
      "stateMutability": "view",
      "type": "function"
    },
    {
      "inputs": [
        {
          "internalType": "bytes",
          "name": "",
          "type": "bytes"
        }
      ],
      "name": "performUpkeep",
      "outputs": [],
      "stateMutability": "nonpayable",
      "type": "function"
    },
    {
      "inputs": [
        {
          "internalType": "uint256",
          "name": "",
          "type": "uint256"
        }
      ],
      "name": "players",
      "outputs": [
        {
          "internalType": "address",
          "name": "",
          "type": "address"
        }
      ],
      "stateMutability": "view",
      "type": "function"
    },
    {
      "inputs": [
        {
          "internalType": "uint256",
          "name": "requestId",
          "type": "uint256"
        },
        {
          "internalType": "uint256[]",
          "name": "randomWords",
          "type": "uint256[]"
        }
      ],
      "name": "rawFulfillRandomWords",
      "outputs": [],
      "stateMutability": "nonpayable",
      "type": "function"
    },
    {
      "inputs": [],
      "name": "renounceOwnership",
      "outputs": [],
      "stateMutability": "nonpayable",
      "type": "function"
    },
    {
      "inputs": [],
      "name": "requestId",
      "outputs": [
        {
          "internalType": "uint256",
          "name": "",
          "type": "uint256"
        }
      ],
      "stateMutability": "view",
      "type": "function"
    },
    {
      "inputs": [
        {
          "internalType": "uint256",
          "name": "_newFee",
          "type": "uint256"
        }
      ],
      "name": "setEntryFee",
      "outputs": [],
      "stateMutability": "nonpayable",
      "type": "function"
    },
    {
      "inputs": [],
      "name": "startLottery",
      "outputs": [],
      "stateMutability": "nonpayable",
      "type": "function"
    },
    {
      "inputs": [
        {
          "internalType": "address",
          "name": "newOwner",
          "type": "address"
        }
      ],
      "name": "transferOwnership",
      "outputs": [],
      "stateMutability": "nonpayable",
      "type": "function"
    },
    {
      "inputs": [],
      "name": "winner",
      "outputs": [
        {
          "internalType": "address",
          "name": "",
          "type": "address"
        }
      ],
      "stateMutability": "view",
      "type": "function"
    },
    {
      "inputs": [],
      "name": "withdrawPrize",
      "outputs": [],
      "stateMutability": "nonpayable",
      "type": "function"
    }
  ],
  "bytecode": "0x60a0604052738103b0a8a00be2ddc778e6e7eaa21791cd364625600260006101000a81548173ffffffffffffffffffffffffffffffffffffffff021916908373ffffffffffffffffffffffffffffffffffffffff1602179055507f474e34a077df58807dbe9c96d3c009b23b3c6d0cce433e59bbf5b34f823bc56c60001b600355620186a0600460006101000a81548163ffffffff021916908363ffffffff16021790555060036004806101000a81548161ffff021916908361ffff1602179055506001600460066101000a81548163ffffffff021916908363ffffffff160217905550662386f26fc100006007556000600860006101000a81548160ff0219169083151502179055506000600a60006101000a81548160ff0219169083151502179055503480156200013157600080fd5b5060405162002a7538038062002a75833981810160405281019062000157919062000428565b33600260009054906101000a900473ffffffffffffffffffffffffffffffffffffffff168073ffffffffffffffffffffffffffffffffffffffff1660808173ffffffffffffffffffffffffffffffffffffffff168152505050600073ffffffffffffffffffffffffffffffffffffffff168173ffffffffffffffffffffffffffffffffffffffff1603620002255760006040517f1e4fbdf70000000000000000000000000000000000000000000000000000000081526004016200021c91906200049f565b60405180910390fd5b62000236816200031a60201b60201c565b5060008167ffffffffffffffff160362000287576040517f08c379a00000000000000000000000000000000000000000000000000000000081526004016200027e906200051d565b60405180910390fd5b600260009054906101000a900473ffffffffffffffffffffffffffffffffffffffff16600160006101000a81548173ffffffffffffffffffffffffffffffffffffffff021916908373ffffffffffffffffffffffffffffffffffffffff16021790555080600160146101000a81548167ffffffffffffffff021916908367ffffffffffffffff160217905550506200053f565b60008060009054906101000a900473ffffffffffffffffffffffffffffffffffffffff169050816000806101000a81548173ffffffffffffffffffffffffffffffffffffffff021916908373ffffffffffffffffffffffffffffffffffffffff1602179055508173ffffffffffffffffffffffffffffffffffffffff168173ffffffffffffffffffffffffffffffffffffffff167f8be0079c531659141344cd1fd0a4f28419497f9722a3daafe3b4186f6b6457e060405160405180910390a35050565b600080fd5b600067ffffffffffffffff82169050919050565b6200040281620003e3565b81146200040e57600080fd5b50565b6000815190506200042281620003f7565b92915050565b600060208284031215620004415762000440620003de565b5b6000620004518482850162000411565b91505092915050565b600073ffffffffffffffffffffffffffffffffffffffff82169050919050565b600062000487826200045a565b9050919050565b62000499816200047a565b82525050565b6000602082019050620004b660008301846200048e565b92915050565b600082825260208201905092915050565b7f496e76616c696420737562736372697074696f6e204944000000000000000000600082015250565b600062000505601783620004bc565b91506200051282620004cd565b602082019050919050565b600060208201905081810360008301526200053881620004f6565b9050919050565b6080516125136200056260003960008181610939015261098d01526125136000f3fe60806040526004361061013f5760003560e01c80636e04ff0d116100b6578063c60c4ae91161006f578063c60c4ae9146103f0578063dfbf53ae1461041b578063e97dcb6214610446578063eb770d0c14610450578063f2fde38b14610479578063f71d96cb146104a25761013f565b80636e04ff0d146102dd578063715018a61461031b57806385f07bbe146103325780638b5b9ccc1461035d5780638da5cb5b14610388578063a230c524146103b35761013f565b8063160344e211610108578063160344e2146102075780631b1e47b41461021e5780631fe543e3146102495780633197cbb6146102725780634585e33b1461029d57806348d37a58146102c65761013f565b80626d6cae14610144578063072ea61c1461016f578063100482981461019a57806312065fe0146101c55780631593a8c7146101f0575b600080fd5b34801561015057600080fd5b506101596104df565b60405161016691906115b5565b60405180910390f35b34801561017b57600080fd5b506101846104e5565b60405161019191906115b5565b60405180910390f35b3480156101a657600080fd5b506101af6104eb565b6040516101bc91906115eb565b60405180910390f35b3480156101d157600080fd5b506101da6104fe565b6040516101e791906115b5565b60405180910390f35b3480156101fc57600080fd5b50610205610506565b005b34801561021357600080fd5b5061021c610720565b005b34801561022a57600080fd5b50610233610930565b60405161024091906115b5565b60405180910390f35b34801561025557600080fd5b50610270600480360381019061026b919061179f565b610937565b005b34801561027e57600080fd5b506102876109f7565b60405161029491906115b5565b60405180910390f35b3480156102a957600080fd5b506102c460048036038101906102bf9190611856565b6109fd565b005b3480156102d257600080fd5b506102db610ae6565b005b3480156102e957600080fd5b5061030460048036038101906102ff9190611856565b610cfe565b604051610312929190611922565b60405180910390f35b34801561032757600080fd5b50610330610d4d565b005b34801561033e57600080fd5b50610347610d61565b60405161035491906115b5565b60405180910390f35b34801561036957600080fd5b50610372610d66565b60405161037f9190611a42565b60405180910390f35b34801561039457600080fd5b5061039d610df4565b6040516103aa9190611a73565b60405180910390f35b3480156103bf57600080fd5b506103da60048036038101906103d59190611aba565b610e1d565b6040516103e791906115eb565b60405180910390f35b3480156103fc57600080fd5b50610405610e3d565b60405161041291906115eb565b60405180910390f35b34801561042757600080fd5b50610430610e50565b60405161043d9190611a73565b60405180910390f35b61044e610e76565b005b34801561045c57600080fd5b5061047760048036038101906104729190611ae7565b6110a3565b005b34801561048557600080fd5b506104a0600480360381019061049b9190611aba565b61112f565b005b3480156104ae57600080fd5b506104c960048036038101906104c49190611ae7565b6111b5565b6040516104d69190611a73565b60405180910390f35b60095481565b60075481565b600a60009054906101000a900460ff1681565b600047905090565b600860009054906101000a900460ff16610555576040517f08c379a000000000000000000000000000000000000000000000000000000000815260040161054c90611b71565b60405180910390fd5b6002600580549050101561059e576040517f08c379a000000000000000000000000000000000000000000000000000000000815260040161059590611bdd565b60405180910390fd5b6007546005805490506105b19190611c2c565b47146105f2576040517f08c379a00000000000000000000000000000000000000000000000000000000081526004016105e990611cba565b60405180910390fd5b6000600860006101000a81548160ff0219169083151502179055506001600a60006101000a81548160ff021916908315150217905550600160009054906101000a900473ffffffffffffffffffffffffffffffffffffffff1673ffffffffffffffffffffffffffffffffffffffff16635d3b1d30600354600160149054906101000a900467ffffffffffffffff1660048054906101000a900461ffff16600460009054906101000a900463ffffffff16600460069054906101000a900463ffffffff166040518663ffffffff1660e01b81526004016106d5959493929190611d52565b6020604051808303816000875af11580156106f4573d6000803e3d6000fd5b505050506040513d601f19601f820116820180604052508101906107189190611dba565b600981905550565b6107286111f4565b600860009054906101000a900460ff1615610778576040517f08c379a000000000000000000000000000000000000000000000000000000000815260040161076f90611e33565b60405180910390fd5b600047146107bb576040517f08c379a00000000000000000000000000000000000000000000000000000000081526004016107b290611e9f565b60405180910390fd5b60005b60058054905081101561087457600060066000600584815481106107e5576107e4611ebf565b5b9060005260206000200160009054906101000a900473ffffffffffffffffffffffffffffffffffffffff1673ffffffffffffffffffffffffffffffffffffffff1673ffffffffffffffffffffffffffffffffffffffff16815260200190815260200160002060006101000a81548160ff021916908315150217905550808061086c90611eee565b9150506107be565b5060056000610883919061155e565b6000600860016101000a81548173ffffffffffffffffffffffffffffffffffffffff021916908373ffffffffffffffffffffffffffffffffffffffff1602179055506001600860006101000a81548160ff02191690831515021790555062015180426108ef9190611f36565b600b819055507f3d01c4ba0165a3f9c01ca4916efd5efd92dd9ac07569ff74d7047c7cde668349600b5460405161092691906115b5565b60405180910390a1565b6201518081565b7f000000000000000000000000000000000000000000000000000000000000000073ffffffffffffffffffffffffffffffffffffffff163373ffffffffffffffffffffffffffffffffffffffff16146109e957337f00000000000000000000000000000000000000000000000000000000000000006040517f1cf993f40000000000000000000000000000000000000000000000000000000081526004016109e0929190611f6a565b60405180910390fd5b6109f3828261127b565b5050565b600b5481565b600860009054906101000a900460ff16610a4c576040517f08c379a0000000000000000000000000000000000000000000000000000000008152600401610a4390611b71565b60405180910390fd5b600b54421015610a91576040517f08c379a0000000000000000000000000000000000000000000000000000000008152600401610a8890611fdf565b60405180910390fd5b60026005805490501015610ada576040517f08c379a0000000000000000000000000000000000000000000000000000000008152600401610ad190611bdd565b60405180910390fd5b610ae2610506565b5050565b600860019054906101000a900473ffffffffffffffffffffffffffffffffffffffff1673ffffffffffffffffffffffffffffffffffffffff163373ffffffffffffffffffffffffffffffffffffffff1614610b76576040517f08c379a0000000000000000000000000000000000000000000000000000000008152600401610b6d9061204b565b60405180910390fd5b60004711610bb9576040517f08c379a0000000000000000000000000000000000000000000000000000000008152600401610bb0906120b7565b60405180910390fd5b60004790506000600860016101000a81548173ffffffffffffffffffffffffffffffffffffffff021916908373ffffffffffffffffffffffffffffffffffffffff16021790555060003373ffffffffffffffffffffffffffffffffffffffff1682604051610c2690612108565b60006040518083038185875af1925050503d8060008114610c63576040519150601f19603f3d011682016040523d82523d6000602084013e610c68565b606091505b5050905080610cac576040517f08c379a0000000000000000000000000000000000000000000000000000000008152600401610ca390612169565b60405180910390fd5b3373ffffffffffffffffffffffffffffffffffffffff167f0835f27f462de8bce2ca086b3439451a8842d337fe4bf1fcc4aced1f952a2e2f83604051610cf291906115b5565b60405180910390a25050565b60006060600860009054906101000a900460ff168015610d205750600b544210155b8015610d325750600260058054905010155b91506040518060200160405280600081525090509250929050565b610d556111f4565b610d5f6000611492565b565b600281565b60606005805480602002602001604051908101604052809291908181526020018280548015610dea57602002820191906000526020600020905b8160009054906101000a900473ffffffffffffffffffffffffffffffffffffffff1673ffffffffffffffffffffffffffffffffffffffff1681526020019060010190808311610da0575b5050505050905090565b60008060009054906101000a900473ffffffffffffffffffffffffffffffffffffffff16905090565b60066020528060005260406000206000915054906101000a900460ff1681565b600860009054906101000a900460ff1681565b600860019054906101000a900473ffffffffffffffffffffffffffffffffffffffff1681565b600860009054906101000a900460ff16610ec5576040517f08c379a0000000000000000000000000000000000000000000000000000000008152600401610ebc906121d5565b60405180910390fd5b6007543414610f09576040517f08c379a0000000000000000000000000000000000000000000000000000000008152600401610f0090612241565b60405180910390fd5b600660003373ffffffffffffffffffffffffffffffffffffffff1673ffffffffffffffffffffffffffffffffffffffff16815260200190815260200160002060009054906101000a900460ff1615610f96576040517f08c379a0000000000000000000000000000000000000000000000000000000008152600401610f8d906122ad565b60405180910390fd5b6001600660003373ffffffffffffffffffffffffffffffffffffffff1673ffffffffffffffffffffffffffffffffffffffff16815260200190815260200160002060006101000a81548160ff0219169083151502179055506005339080600181540180825580915050600190039060005260206000200160009091909190916101000a81548173ffffffffffffffffffffffffffffffffffffffff021916908373ffffffffffffffffffffffffffffffffffffffff1602179055503373ffffffffffffffffffffffffffffffffffffffff167fdb4b459b9af0810582f21ec0ec043ee9c3f91ea26a3d3a675dea0e9e5e099f0560075460405161109991906115b5565b60405180910390a2565b6110ab6111f4565b600081116110ee576040517f08c379a00000000000000000000000000000000000000000000000000000000081526004016110e590612319565b60405180910390fd5b806007819055507f24a0b2e591795f2c27be52ff14a57d0a39ac957304305bc05e8b04be49e8fe158160405161112491906115b5565b60405180910390a150565b6111376111f4565b600073ffffffffffffffffffffffffffffffffffffffff168173ffffffffffffffffffffffffffffffffffffffff16036111a95760006040517f1e4fbdf70000000000000000000000000000000000000000000000000000000081526004016111a09190611a73565b60405180910390fd5b6111b281611492565b50565b600581815481106111c557600080fd5b906000526020600020016000915054906101000a900473ffffffffffffffffffffffffffffffffffffffff1681565b6111fc611556565b73ffffffffffffffffffffffffffffffffffffffff1661121a610df4565b73ffffffffffffffffffffffffffffffffffffffff16146112795761123d611556565b6040517f118cdaa70000000000000000000000000000000000000000000000000000000081526004016112709190611a73565b60405180910390fd5b565b600860009054906101000a900460ff16156112cb576040517f08c379a00000000000000000000000000000000000000000000000000000000081526004016112c290612385565b60405180910390fd5b600a60009054906101000a900460ff1661131a576040517f08c379a0000000000000000000000000000000000000000000000000000000008152600401611311906123f1565b60405180910390fd5b600081511161135e576040517f08c379a00000000000000000000000000000000000000000000000000000000081526004016113559061245d565b60405180910390fd5b6000600a60006101000a81548160ff02191690831515021790555060006005805490508260008151811061139557611394611ebf565b5b60200260200101516113a791906124ac565b9050600581815481106113bd576113bc611ebf565b5b9060005260206000200160009054906101000a900473ffffffffffffffffffffffffffffffffffffffff16600860016101000a81548173ffffffffffffffffffffffffffffffffffffffff021916908373ffffffffffffffffffffffffffffffffffffffff160217905550600860019054906101000a900473ffffffffffffffffffffffffffffffffffffffff1673ffffffffffffffffffffffffffffffffffffffff167fd56c0851d0fe0f700bbb9abe1c0f08dc69c1f372f342446b87e0dc81ea6a258b60405160405180910390a2505050565b60008060009054906101000a900473ffffffffffffffffffffffffffffffffffffffff169050816000806101000a81548173ffffffffffffffffffffffffffffffffffffffff021916908373ffffffffffffffffffffffffffffffffffffffff1602179055508173ffffffffffffffffffffffffffffffffffffffff168173ffffffffffffffffffffffffffffffffffffffff167f8be0079c531659141344cd1fd0a4f28419497f9722a3daafe3b4186f6b6457e060405160405180910390a35050565b600033905090565b508054600082559060005260206000209081019061157c919061157f565b50565b5b80821115611598576000816000905550600101611580565b5090565b6000819050919050565b6115af8161159c565b82525050565b60006020820190506115ca60008301846115a6565b92915050565b60008115159050919050565b6115e5816115d0565b82525050565b600060208201905061160060008301846115dc565b92915050565b6000604051905090565b600080fd5b600080fd5b6116238161159c565b811461162e57600080fd5b50565b6000813590506116408161161a565b92915050565b600080fd5b6000601f19601f8301169050919050565b7f4e487b7100000000000000000000000000000000000000000000000000000000600052604160045260246000fd5b6116948261164b565b810181811067ffffffffffffffff821117156116b3576116b261165c565b5b80604052505050565b60006116c6611606565b90506116d2828261168b565b919050565b600067ffffffffffffffff8211156116f2576116f161165c565b5b602082029050602081019050919050565b600080fd5b600061171b611716846116d7565b6116bc565b9050808382526020820190506020840283018581111561173e5761173d611703565b5b835b8181101561176757806117538882611631565b845260208401935050602081019050611740565b5050509392505050565b600082601f83011261178657611785611646565b5b8135611796848260208601611708565b91505092915050565b600080604083850312156117b6576117b5611610565b5b60006117c485828601611631565b925050602083013567ffffffffffffffff8111156117e5576117e4611615565b5b6117f185828601611771565b9150509250929050565b600080fd5b60008083601f84011261181657611815611646565b5b8235905067ffffffffffffffff811115611833576118326117fb565b5b60208301915083600182028301111561184f5761184e611703565b5b9250929050565b6000806020838503121561186d5761186c611610565b5b600083013567ffffffffffffffff81111561188b5761188a611615565b5b61189785828601611800565b92509250509250929050565b600081519050919050565b600082825260208201905092915050565b60005b838110156118dd5780820151818401526020810190506118c2565b60008484015250505050565b60006118f4826118a3565b6118fe81856118ae565b935061190e8185602086016118bf565b6119178161164b565b840191505092915050565b600060408201905061193760008301856115dc565b818103602083015261194981846118e9565b90509392505050565b600081519050919050565b600082825260208201905092915050565b6000819050602082019050919050565b600073ffffffffffffffffffffffffffffffffffffffff82169050919050565b60006119a98261197e565b9050919050565b6119b98161199e565b82525050565b60006119cb83836119b0565b60208301905092915050565b6000602082019050919050565b60006119ef82611952565b6119f9818561195d565b9350611a048361196e565b8060005b83811015611a35578151611a1c88826119bf565b9750611a27836119d7565b925050600181019050611a08565b5085935050505092915050565b60006020820190508181036000830152611a5c81846119e4565b905092915050565b611a6d8161199e565b82525050565b6000602082019050611a886000830184611a64565b92915050565b611a978161199e565b8114611aa257600080fd5b50565b600081359050611ab481611a8e565b92915050565b600060208284031215611ad057611acf611610565b5b6000611ade84828501611aa5565b91505092915050565b600060208284031215611afd57611afc611610565b5b6000611b0b84828501611631565b91505092915050565b600082825260208201905092915050565b7f4c6f7474657279206e6f74206f70656e00000000000000000000000000000000600082015250565b6000611b5b601083611b14565b9150611b6682611b25565b602082019050919050565b60006020820190508181036000830152611b8a81611b4e565b9050919050565b7f4e6f7420656e6f75676820706c61796572730000000000000000000000000000600082015250565b6000611bc7601283611b14565b9150611bd282611b91565b602082019050919050565b60006020820190508181036000830152611bf681611bba565b9050919050565b7f4e487b7100000000000000000000000000000000000000000000000000000000600052601160045260246000fd5b6000611c378261159c565b9150611c428361159c565b9250828202611c508161159c565b91508282048414831517611c6757611c66611bfd565b5b5092915050565b7f42616c616e6365206d69736d6174636800000000000000000000000000000000600082015250565b6000611ca4601083611b14565b9150611caf82611c6e565b602082019050919050565b60006020820190508181036000830152611cd381611c97565b9050919050565b6000819050919050565b611ced81611cda565b82525050565b600067ffffffffffffffff82169050919050565b611d1081611cf3565b82525050565b600061ffff82169050919050565b611d2d81611d16565b82525050565b600063ffffffff82169050919050565b611d4c81611d33565b82525050565b600060a082019050611d676000830188611ce4565b611d746020830187611d07565b611d816040830186611d24565b611d8e6060830185611d43565b611d9b6080830184611d43565b9695505050505050565b600081519050611db48161161a565b92915050565b600060208284031215611dd057611dcf611610565b5b6000611dde84828501611da5565b91505092915050565b7f4c6f747465727920616c7265616479206f70656e000000000000000000000000600082015250565b6000611e1d601483611b14565b9150611e2882611de7565b602082019050919050565b60006020820190508181036000830152611e4c81611e10565b9050919050565b7f5072697a65206e6f742077697468647261776e00000000000000000000000000600082015250565b6000611e89601383611b14565b9150611e9482611e53565b602082019050919050565b60006020820190508181036000830152611eb881611e7c565b9050919050565b7f4e487b7100000000000000000000000000000000000000000000000000000000600052603260045260246000fd5b6000611ef98261159c565b91507fffffffffffffffffffffffffffffffffffffffffffffffffffffffffffffffff8203611f2b57611f2a611bfd565b5b600182019050919050565b6000611f418261159c565b9150611f4c8361159c565b9250828201905080821115611f6457611f63611bfd565b5b92915050565b6000604082019050611f7f6000830185611a64565b611f8c6020830184611a64565b9392505050565b7f4c6f7474657279206e6f742079657420656e6465640000000000000000000000600082015250565b6000611fc9601583611b14565b9150611fd482611f93565b602082019050919050565b60006020820190508181036000830152611ff881611fbc565b9050919050565b7f4e6f74207468652077696e6e6572000000000000000000000000000000000000600082015250565b6000612035600e83611b14565b915061204082611fff565b602082019050919050565b6000602082019050818103600083015261206481612028565b9050919050565b7f4e6f207072697a6520746f207769746864726177000000000000000000000000600082015250565b60006120a1601483611b14565b91506120ac8261206b565b602082019050919050565b600060208201905081810360008301526120d081612094565b9050919050565b600081905092915050565b50565b60006120f26000836120d7565b91506120fd826120e2565b600082019050919050565b6000612113826120e5565b9150819050919050565b7f5072697a65207472616e73666572206661696c65640000000000000000000000600082015250565b6000612153601583611b14565b915061215e8261211d565b602082019050919050565b6000602082019050818103600083015261218281612146565b9050919050565b7f4c6f7474657279206973206e6f74206f70656e00000000000000000000000000600082015250565b60006121bf601383611b14565b91506121ca82612189565b602082019050919050565b600060208201905081810360008301526121ee816121b2565b9050919050565b7f496e636f727265637420656e7472792066656500000000000000000000000000600082015250565b600061222b601383611b14565b9150612236826121f5565b602082019050919050565b6000602082019050818103600083015261225a8161221e565b9050919050565b7f416c7265616479206a6f696e6564000000000000000000000000000000000000600082015250565b6000612297600e83611b14565b91506122a282612261565b602082019050919050565b600060208201905081810360008301526122c68161228a565b9050919050565b7f456e74727920666565206d75737420626520706f736974697665000000000000600082015250565b6000612303601a83611b14565b915061230e826122cd565b602082019050919050565b60006020820190508181036000830152612332816122f6565b9050919050565b7f4c6f7474657279207374696c6c206f70656e0000000000000000000000000000600082015250565b600061236f601283611b14565b915061237a82612339565b602082019050919050565b6000602082019050818103600083015261239e81612362565b9050919050565b7f4e6f2070656e64696e6720565246207265717565737400000000000000000000600082015250565b60006123db601683611b14565b91506123e6826123a5565b602082019050919050565b6000602082019050818103600083015261240a816123ce565b9050919050565b7f496e76616c69642072616e646f6d20776f726473000000000000000000000000600082015250565b6000612447601483611b14565b915061245282612411565b602082019050919050565b600060208201905081810360008301526124768161243a565b9050919050565b7f4e487b7100000000000000000000000000000000000000000000000000000000600052601260045260246000fd5b60006124b78261159c565b91506124c28361159c565b9250826124d2576124d161247d565b5b82820690509291505056fea26469706673582212208ce3564ddacf5ce441c72201d52b446907014065d6b057dcc165de0aafffeb4464736f6c63430008140033",
  "linkReferences": {},
  "deployedLinkReferences": {}
}